:020000040800F2
:10000000082A002041020008051400080114000815
:1000100003140008A9120008CD1600080000000013
:1000200000000000000000000000000009140008AB
:10003000D11200080000000007140008291500086C
:100040005B0200085B0200085B0200085B0200081C
:100050005B0200085B0200085B0200085B0200080C
:100060005B0200085B0200085B0200085B020008FC
:100070005B0200085B0200085B0200085B020008EC
:100080005B0200085B020008991200085B0200088E
:100090005B0200085B0200085B0200085B020008CC
:1000A000B91500085B0200085B0200085B0200084B
:1000B0005B0200085B0200085B0200085B020008AC
:1000C0005B0200085B0200085B0200085B0200089C
:1000D0005B0200085B0200085B0200085B0200088C
:1000E0005B0200085B0200085B0200085B0200087C
:1000F0005B0200085B0200085B0200085B0200086C
:100100005B0200085B0200085B0200085B0200085B
:100110005B0200085B0200085B020008751600081D
:100120005B0200085B0200085B0200085B0200083B
:100130005B0200085B0200085B0200085B0200082B
:100140005B0200085B0200085B0200085B0200081B
:100150005B0200085B0200085B0200085B0200080B
:100160005B0200085B0200085B0200085B020008FB
:100170005B0200085B0200085B0200080000000050
:100180005B0200085B02000800F002F800F049F88A
:100190000AA090E8000C82448344AAF10107DA45E2
:1001A00001D100F03EF8AFF2090EBAE80F0013F0EB
:1001B000010F18BFFB1A43F0010318472425000064
:1001C00044250000103A24BF78C878C1FAD85207F5
:1001D00024BF30C830C144BF04680C6070470000C1
:1001E0000023002400250026103A28BF78C1FBD840
:1001F000520728BF30C148BF0B607047662902F024
:100200002382002070471FB502F019FA00F00AFBA4
:1002100004000020002101F085FCE0601FBD10B546
:1002200010BD00F0FCFB1146FFF7EDFF01F02EFBC7
:1002300000F01AFC03B4FFF7F2FF03BC00F05EFC11
:100240000948804709480047FEE7FEE7FEE7FEE76A
:10025000FEE7FEE7FEE7FEE7FEE7FEE704480549A6
:10026000054A064B70470000A915000889010008DF
:1002700008240020082A0020082600200826002044
:100280000FB41CB5074B06AA7B446946009005983D
:1002900000F0ABFA0020694600F0BAFA1CBC5DF829
:1002A00014FB0000850500002DE9F0474FF0000A1F
:1002B00089460446C0F820A02046E1688847002807
:1002C00076D0252806D0D4E901219047206A401C29
:1002D0002062F1E7E168204600258847C4F81CA0A9
:1002E00006460027C4F818A02A2E09D0304601F08F
:1002F00023FA38B304EB8708303EC8F8186019E0D9
:1003000059F8041B204604EB87029161E168884795
:10031000012F064618D1E069002820DA25F02005D3
:100320001DE0D8F8180000EB800006EB40003038E4
:10033000C8F818002046E1688847064601F0FCF935
:100340000028EED1012F0AD02E2E08D12046E168D8
:1003500088477F1C0646022F45F02005C4DBA069B4
:10036000002803DA404245F00105A061E80701D00A
:1003700025F01005B6B1A6F14100192802D82036A3
:1003800045F400654A463146204625604D46FFF754
:1003900035FF58B1012806D0ED1D25F0070000F10A
:1003A000080989E704E005F1040985E730468AE792
:1003B000206ABDE8F08770477047704770472DE9A5
:1003C000FF4F0C461E464FF0FF378BB0D2E90001BD
:1003D000DDF860800A908A46C1F30A5505B93D46AA
:1003E000002108464FF00000BAF1000F00F4400071
:1003F00005DA00EB80004FF4400101EA50004FEABB
:100400009059B9F1010F00DDB9460A9850EA4A0047
:100410000ED044F61050A5F2FF3545432F14B8F125
:10042000000F1ED07542291E1EDDC9F100021CE01E
:10043000B8F1010F4FF0000001D0302103E0F2438A
:1004400005E02154401CB042FBDB30460022002175
:1004500021540B99C1F80880C1E900200FB000F0C9
:10046000BCB9BD1B6D1CDEE74A4600DA694206A82E
:1004700000F062FA06AB93E8070003AB83E80700DD
:1004800050460A9900F040FB8DE80700A0F50050A7
:100490001F3800900398002D0ADD42F21F014A46E2
:1004A0000844002303A90390684600F0A9FD09E071
:1004B000A0F500504A461F38002303A90390684660
:1004C00000F0B3FD8DE807000004000C03D04FF0EE
:1004D000FF30410800E01046B8F1000F03D00022C1
:1004E000009215461EE0751E05D400F09FF93032CB
:1004F00062556D1EF9D5B3460122084302D0002291
:100500007F1C04E02078302801D100227F1E002AC1
:10051000099784D01DE0112D07DA00F087F93032F9
:1005200062556D1C50EA0102F5D1084302D00098D3
:10053000C8B10EE00021681E05E0235C625C6354D4
:100540002254401E491C8142F7DBAB46A81B401ECB
:100550000990002004F80B000B98099AC0F8088055
:10056000C0E9002B7AE711264FF0000857E72DE984
:10057000F04F88460446D21D22F0070191B0D1E920
:100580000001CDE90A0101F0A2F802460B98C00F64
:1005900001D02D2007E02068810701D52B2002E043
:1005A000202101EAC000032A099001D0072A05DBB7
:1005B00003464146204600F07FF90BE12078800693
:1005C00001D5E06900E00620B8F1650F814606D04C
:1005D000B8F1660F18D0B8F1670F70D131E0002084
:1005E000B9F1110F009001DB112301E009F10103C2
:1005F0000AAA01A90CA8FFF7E2FEDDE90C700026AB
:1006000009F10105834647E001204B4600904FF079
:1006100000470AAA01A90CA8FFF7D1FEDDE90DB039
:100620000C995D46002610B909F101000D18B9EBCF
:10063000050003D4C0F1FF3609F10105A5EB09005F
:100640002BE0B9F1010F01DA4FF001090020B9F1F7
:10065000110F0090484601DD112300E003460AAA6D
:1006600001A90CA8FFF7ABFEDDE90C704D46002692
:100670008346207800070AD4AB4500DA5D4601A81E
:10068000012D04DD411911F8011C302907D04F4517
:1006900002DA17F1040F04DA012082460FE06D1E22
:1006A000EEE7002F02DCED1B3E4403E0781CA8427D
:1006B00000DD7D1CB81B00F1010A4FF000472078D7
:1006C000000703D4AA4501DB4FF0FF3A0021B7F140
:1006D000004F0DF143088DF8431024D002202B2346
:1006E000002F01DA7F422D230A21021EA0F1010012
:1006F00000DC5FB197FBF1FC97FBF1F201FB1C7C86
:1007000017460CF1300C08F801CDEEE7A8F1010016
:1007100003702188090501D5452100E06521A0F17C
:10072000010800F8011C09980FA9A1EB0807FF1D9B
:1007300000B10120411901EBEA70A1693844081A9F
:10074000401EA0612078C00602D42046AFF300808E
:10075000099828B1D4E901219047206A401C206201
:100760002078C00622D52046AFF300801EE0002E80
:1007700004DBB34502DD01A8805D00E03020D4E950
:1007800001219047206A401C2062761CAAF10100DA
:100790005FEA000A0AD100F045F8C0680168405CD1
:1007A000D4E901219047206A401C2062281EA5F14F
:1007B0000105DCDC07E0D4E9012118F8010B9047C2
:1007C000206A401C2062381EA7F10107F3DC204696
:1007D000AFF30080032011B041E630BCBDE8C08F0C
:1007E00001694A1C02610878704700B58FB0CDE9F5
:1007F00001310021059105497944CDE903101146E5
:100800006846FFF751FD0FB000BD0000E5FFFFFF98
:100810000A6802F8010B0A60704700000048704740
:10082000A823002000487047C823002030B5B0F14D
:100830000A024FEA900E71F100034EEA817EB0EB9E
:100840000E0061EB91014FEA101E4EEA017E10EBA3
:100850000E0041EB11114FEA102E4EEA016E10EB23
:100860000E0041EB11214FEA104E4EEA014E10EB03
:100870000E0041EB1141401841F100014FEAD00058
:1008800040EA41704FEAD10110EB80054FEA810444
:1008900044EA907444EB01046D1944EB0404521BC8
:1008A000A3414FF0000348BF0A3200D530BD401CC1
:1008B00041F1000130BD00002DE9F0411F46044622
:1008C00003260168072A01F4006004DB08B116A5BD
:1008D00005E016A503E008B115A500E015A521F077
:1008E00010002060A069C01EA0610FB1401EA06171
:1008F0002046AFF300804FB1D4E90121384690473C
:10090000206A401C2062C01C206206E0206AFAE7D0
:10091000D4E9012115F8010B9047761EF8D2204644
:10092000AFF30080BDE8F0814E414E006E616E0075
:10093000494E4600696E66002DE9F047814616462D
:100940008AB0354878440DC88DE80D0032487844A7
:10095000801C03AC0DC884E80D0041F69B300844B0
:10096000372190FBF1F290FBF1F5A5F1800501FB39
:1009700012041B3C02D56442012000E00020DFF895
:1009800098A080460027FA44AAF1BE0A0EE0E007CC
:100990000AD03246684607EB470101230AEB810182
:1009A00000F043FB8DE8070064107F1C002CEED1A3
:1009B000194F7F44AE3F19E0E80715D007EB04104C
:1009C0000DF1180A90E80E008AE80E00C068F042A7
:1009D00001D1981908903246012306A903A800F016
:1009E00024FB03AB83E807006D10641C002DE3D1EA
:1009F0004FF0010332466946B8F1000F03A802D058
:100A000000F0FEFA01E000F010FBC9E90001C9F8AE
:100A100008200AB0BDE8F087801D000070477546C9
:100A2000FFF7FCFEAE4605006946534620F007007E
:100A3000854618B020B5FFF711FCBDE820404FF007
:100A400000064FF000074FF000084FF0000B21F0B8
:100A50000701AC46ACE8C009ACE8C009ACE8C00985
:100A6000ACE8C0098D46704710B50446AFF300806E
:100A70002046BDE81040FFF7DDBB00004FF0013C11
:100A800050F8042B51F8043B9A4221D1A2EB0C03FD
:100A9000934313EACC1317D150F8042B51F8043BBD
:100AA0009A4215D1A2EB0C03934313EACC130BD15A
:100AB00050F8042B51F8043B9A4209D1A2EB0C03E5
:100AC000934313EACC13DBD04FF00000704700BF14
:100AD000D01A01BAB1FA81F101F0180122FA01F03D
:100AE000CB40C1F12001DBB2C0B2C01A2CFA01F335
:100AF000D11A914311EAC311E6D170470149182078
:100B0000ABBEFEE7260002005FEA400C08BF91F092
:100B1000000F4FEA8C234FEAC12243EA51514FEABA
:100B20001C5018BF00F5F0404FEA300018BF41F0EC
:100B300000415FEA6C5C00F02980BCF1FF3F08BF18
:100B400040F080407047130C06BF12044FF0100CA9
:100B50004FF0000C130E04BF12020CF1080C130F1F
:100B600004BF12010CF1040C930F04BF92000CF1AE
:100B7000020CD30F04BF52000CF1010C11464FF0D0
:100B80000002A0F11F00A0EB0C00704711F0004F15
:100B900008BF704731F000413FF4D5AF0B0C06BFE2
:100BA00009044FF0100C4FF0000C0B0E04BF0902AB
:100BB0000CF1080C0B0F04BF09010CF1040C8B0F96
:100BC00004BF89000CF1020CCB0F04BF49000CF1EB
:100BD000010CCCF12003A0EB0C0022FA03F302FA83
:100BE0000CF241EA030100F10100704720F07F4C54
:100BF00080EA030023F07F47ACEB070303F57C5347
:100C000000F0004003F1FF032DE980494FEA154B46
:100C100009B44FEA144325EA0B4E24EA03480FF2C5
:100C2000042606EB132749083E785FEA320203FBED
:100C30000667C7F5000707FB06F64FEA54374FEA89
:100C4000D64606F1020607FB066CCCF1005C4FEAC3
:100C50001C472CEA074C07FB06F40CFB06F504EBDB
:100C600015464FEA961634BF00204FF000404FEA79
:100C7000D13706FB07FC4FEA1C4C0CFB0BF7D21BD1
:100C800003FB0CF761EB07010CFB0EF7B0EB074021
:100C900072EB17420CFB08F734BFA2EB0742B2EB32
:100CA000074261EB17414FEA0C444FEA910706FBFC
:100CB00007FC4FEA1C4C0CFB0BF7B0EBC74072EB88
:100CC000573203FB0CF734BFA2EBC742B2EBC7426B
:100CD00061EB57310CFB0EF7B0EBC70072EB5772AC
:100CE0000CFB08F734BFA2EBC702B2EBC70261EB03
:100CF0005771039F4FEA816141EA921104EBCC04E2
:100D00004FEAD1374FEA826206FB07FC42EA9012B3
:100D10004FEA80604FEA1C4C0CFB0BF7D21B03FB25
:100D20000CF761EB07010CFB0EF7B0EB074072EB21
:100D300017420CFB08F734BFA2EB0742B2EB0742A5
:100D400061EB17414FEA8C554FEA910704EB9C2465
:100D500006FB07FC4FEA1C4C0CFB0BF7B0EBC74043
:100D600072EB573203FB0CF734BFA2EBC742B2EB76
:100D7000C74261EB57310CFB0EF7B0EBC70072EBCB
:100D800057720CFB08F734BFA2EBC702B2EBC702E5
:100D900061EB577115EB4C254FEA816141EA9211E5
:100DA0004FEA82624FEAD13742EA901206FB07FC13
:100DB00044F100044FEA80604FEA1C4C0CFB0BF737
:100DC000D21B03FB0CF761EB07010CFB0EF7B0EB3A
:100DD000074072EB17420CFB08F734BFA2EB074247
:100DE000B2EB074261EB174115EB1C154FEA81315D
:100DF00041EA92414FEA823242EA90424FEA803021
:100E00004FEA0C7644F1000448EA03434EEA0B48EB
:100E10004FF0000EB2EB080C71EB030724BF6246E3
:100E200039464EEB0E0E4FF0000B0018524149416F
:100E30004BEB0B0BB2EB080C71EB03077BF1000BD8
:100E400024BF624639464EEB0E0E4FF0000B0018E1
:100E5000524149414BEB0B0BB2EB080C71EB030712
:100E60007BF1000B24BF624639464EEB0E0E51EA71
:100E7000020718BF46F0010616EB0E7655F1000288
:100E800054F1000103D5BDE88901BDE80088BDE843
:100E90008901BDE80048B619524141EB0101A3F1B7
:100EA0000103704780807F7E7D7C7B7A79787776BE
:100EB00076757473727171706F6E6E6D6C6C6B6A37
:100EC0006A696868676666656464636362616160D5
:100ED000605F5F5E5E5D5D5C5C5B5B5A5A59595852
:100EE00058575756565555555454535352525251BC
:100EF000515050504F4F4F4E4E4D4D4D4C4C4C4B12
:100F00004B4B4A4A4A494949484848474747474658
:100F10004646454545444444444343434342424294
:100F200042414141002B9C4630D477002BD01CB568
:100F30004FEA370703B44FF010004FF01001BAF139
:100F4000000F06D0BCF1000FDCBF40F0080040F0FD
:100F500008014FF000000FBCBDE810400BF1010B81
:100F6000BBF1010F08BF5FEA170722BF12F10102B0
:100F700011F101014FF0004143F1000300F0004086
:100F800043EA00007047F9D35708D0E746EA06461F
:100F900013F1400F4FEA16461FDD13F1200FDFBF9C
:100FA00016430A46002120335B42BED0C3F120071E
:100FB00046EA064602FA07F74FEA164646EA0706E9
:100FC000C3F1200722FA03F201FA07F721FA03F12D
:100FD0004FF0000342EA0702A7E746EA020646EAA4
:100FE00006464FEA164646EA0106BCBF46EA0646F2
:100FF000360C4FF000034FF000024FF0000194E771
:101000002DE9804C9A46934670B491E8380007C8A1
:1010100031EA400C48BF34EA430C03D5FFF7E6FD44
:10102000FFF780FFF0BCBDE8008C2DE9804C9A46AC
:10103000934670B491E8380007C810F0804F08BF9D
:1010400013F0804F03D100F005F8FFF76BFFF0BC01
:10105000BDE8008C20F07F4780EA030023F07F4C3E
:1010600007EB0C03A3F57C5300F00040A3F1FE0353
:1010700092F0000F00F0B38095F0000F00F0778041
:101080002DE901494FEA11404FEA144621EA004890
:1010900000FB06FC24EA064708FB06F607FB08F8F7
:1010A00000FB07F718EB06484CEB164C4FEA124BC7
:1010B00018EB07484FEA15464CEB174022EA0B4E57
:1010C0000BFB06FC25EA06470EFB06F607FB0EFEA9
:1010D0000BFB07F71EEB064E4CEB164C4FF00006D1
:1010E0001EEB074E4CEB174B18EB0B0840F10000C2
:1010F00018EB0E0B58EB000840F100008F1A4FF070
:1011000000013CBFC943661B14BFB5EB040C0021B2
:101110003CBFC943F61B4FEA17444EEA8E0E27EA3E
:1011200004454FEA1C4704FB07622CEA074C05FB09
:1011300007F70CFB05F604FB0CFC16EB074642EB2D
:10114000174216EB0C4642EB1C421BEB060658EB13
:101150000202414146EA9E0601D5BDE80189B61961
:10116000524141EB0101A3F10103BDE801894FEABE
:1011700014454FEA114724EA054621EA074C05FBCE
:1011800007F406FB07F70CFB06F105FB0CFC11EB63
:10119000074144EB17444FEA124711EB0C4144EB73
:1011A0001C4422EA074C05FB07F206FB07F70CFB81
:1011B00006F605FB0CFC16EB074642EB174216EB56
:1011C0000C4642EB1C456A1854F1000148BF7047B9
:1011D000B619524141EB0101A3F10103704795F0AB
:1011E000000F37D04FEA11424FEA144721EA024676
:1011F00024EA074C02FB07F106FB07F70CFB06F499
:1012000002FB0CFC14EB074441EB17414FEA154776
:1012100014EB0C4441EB1C4125EA074C02FB07F59B
:1012200006FB07F70CFB06F602FB0CFC16EB074669
:1012300045EB174516EB0C4645EB1C42121951F1D4
:10124000000148BF7047B619524141EB0101A3F1BB
:10125000010370474FEA14454FEA114724EA054657
:1012600021EA074C05FB07F106FB07F70CFB06F22A
:101270004FF0000605FB0CFC12EB074241EB174157
:1012800012EB0C4251EB1C4148BF7047921841EBE6
:101290000101A3F1010370470248016841F0040114
:1012A0000160704700000450FEE730B51468002567
:1012B0009C420BD00C68641C0C60042C05D313609A
:1012C0000D60002B01D10121016030BD0D6030BDEA
:1012D00070470000024881680278114481607047BD
:1012E0003800002010B50024032000F063F80F2020
:1012F00000F008F808B1012401E000F025F82046CC
:1013000010BD000070B50E4E05460024307898B12F
:101310004FF47A71B1FBF0F00A490968B1FBF0F0C3
:1013200000F05AF840B9102D06D200222946501E6E
:1013300000F020F8756000E00124204670BD000038
:101340003800002044000020094808B5016E41F033
:1013500001010166016E01F001010091816D41F012
:1013600080518165806D00F08050009008BD0000C4
:1013700000100240F0B40E4B1B680C46C3F302236E
:10138000C3F10705042D00D90425191D072901D231
:10139000002300E0DB1E012606FA05F1491E21406C
:1013A00099409E40761E16403143F0BC00F0B4B91F
:1013B0000CED00E0064900F0070208684FF6FF0355
:1013C000184040EA0220034A1043086070470000BA
:1013D0000CED00E00000FA0510B5401EB0F1807F72
:1013E00001D3012010BD4FF0E02460610F21601790
:1013F00000F092F90020A06107202061002010BDBC
:10140000FEE7FEE7FEE770477047000070B59FED0E
:10141000381B51EC100B2DED048B53EC112B00F00D
:1014200073FE9FED350B41EC180B53EC102B00F0C5
:101430002FFE07D2012551EC180B00F089FB41EC7F
:10144000180B00E0002551EC180B00F099FD044644
:1014500000F0F3FD53EC182B00F08AFF41EC180B61
:10146000E00709D051EC180B9FED250B53EC102B26
:1014700000F07EFF41EC180BC4F3400453EC182B32
:1014800051EC180B00F040FE9FED1F0B41EC190BC7
:1014900053EC102B00F038FE9FED1D1B53EC112B6D
:1014A00000F066FF53EC192B00F02EFE9FED1A1B87
:1014B00053EC112B00F058FB53EC192B00F024FED9
:1014C0009FED171B53EC112B00F04EFB53EC182B28
:1014D00000F01AFE41EC100BA54205D051EC100BA8
:1014E00000F036FB41EC100BBDEC048B70BD00002E
:1014F00083C8C96D305FE43F0000000000000000B9
:10150000000000000000F03F706570325AB4713F77
:101510002AEBDCB0BC54B43F7364F3E618ABE4BF11
:1015200000549E02F521F93F70B51A4D18482DED73
:10153000028B6C699FED188B00EBC40053EC182BE9
:1015400090ED000B51EC100B00F0DEFD00F048FDBB
:1015500013490860134853EC182B00EBC40090EDBE
:10156000000B51EC100B00F0CFFD00F039FD0C49E1
:101570000C310860641C6C61B4F5FA7F01DB00205B
:101580006861BDEC028BBDE87040FFF7A3BE0000B0
:101590000814002010000020000000E0A263934027
:1015A00008740040480000200248016841F47001BE
:1015B0000160704788ED00E010B51E48016921F018
:1015C000010101611C48016A491C01621B4909684B
:1015D00049B14FF09042516920238B4301F0200123
:1015E00043EA0141916116490968002921D0154952
:1015F000096CDFED150A00EE101AC161B8EE400A61
:1016000020EE200ADFED110A20EE200A80ED060A06
:1016100010EE100A00F0A2FF41EC100B0CA153ECED
:10162000102B1348FEF72CFEBDE81040104800F0C8
:1016300033BA10BD0040014010000020040000201B
:10164000080000200000045033335340000080396C
:10165000D09DD0B0D0BFD180D18FD0B6D0B5D0BDC5
:10166000D0B8D0B53A252E3366D0920A00000000DB
:10167000D0130020124810B5016821F0010101606B
:10168000104CE068401CE0600F480368221D111DEB
:1016900001F11C00FFF709FE616A002021B16062C0
:1016A0002178491C217008E0E168322906D32178AD
:1016B000002903D0226911702070E06010BD000085
:1016C000101400401000002010080048FEE703B48A
:1016D00001984100009850EAC12018BF04204A0D2B
:1016E00018BF40F0010040F2FF72B2EB515F08BF3B
:1016F00040F00200012808BF052002B07047002812
:1017000009DB00F01F02012191404009800000F137
:10171000E020C0F8001170470907090E002804DB1B
:1017200000F1E02080F80014704700F00F0000F195
:10173000E02080F8141D704730380A2801D20120BB
:1017400070470020704700002A48C16C41F40051E6
:10175000C164016841F080610160016941F080610C
:101760000161016941F400710161016941F0807119
:101770000161D0F8881041F08051C0F88810C16C28
:1017800041F00401C1641C49102008601B488168B5
:1017900021F000518160816841F080518160816851
:1017A00021F001018160816821F0804181608168C0
:1017B00041F00041816081680029FCDB4FF45071E9
:1017C0000163416941F010014161816841F001010B
:1017D00081600168C907FCD0C16841F48061C160C3
:1017E000C16841F46071C160816841F004018160A9
:1017F00070470000001002402C0800480000045010
:1018000070B5214D00242DED088B4FF4FA769FED35
:10181000168B9FED179B9FED18AB9FED19BB2046D4
:1018200000F022FC53EC182B00F06EFC53EC192B4B
:1018300000F06AFC53EC1A2B00F04AFA41EC100B52
:10184000FFF7E4FD53EC1B2B51EC100B00F08CF96F
:1018500005EBC402641CA4B2C2E90001B442DED3A9
:10186000BDEC088B70BD00000000000000000040CF
:1018700000000060B81E09400000000000407F40EA
:10188000000000000000F03F081400205E48002522
:101890002DED028B82B00560FFF724FD5B480168E7
:1018A00041F0030101605A4C206840F06100206063
:1018B000E06880F44050E060E06840F00100E060E3
:1018C000E06840F08070E060A06840F00300A06035
:1018D000206840F080702060E06C40F00100E0641F
:1018E000E06C40F00400E0644A48016821F0406187
:1018F000016048480C30016841F080610160FFF7E9
:1019000023FFA06D40F02000A0654348016841F02E
:101910000101016040480C30016841F001010160A3
:101920003D494FF6FF1028310860091D0A20086064
:1019300000F0C2F8A06D40F00050A0653748016883
:1019400041F04021016000BF0560016841F00111D4
:1019500001601220FFF7D3FE1820FFF7D0FE2620EB
:10196000FFF7CDFE3720FFF7CAFEFFF749FF9FEDD7
:101970002C0B00249FED2C8B2D4E2E4F8DED000B4C
:1019800025464FF4FA7800BF06EBC500B0EE480AD2
:1019900090ED001BF0EE680A22466946264800F0EA
:1019A0004DF807EBC500641C80ED000B204600F0ED
:1019B00044FB53EC182B00F0A5FC00D800246D1C50
:1019C0004545E1DB5FF0000506EBC500B0EE480AD7
:1019D00090ED001BF0EE680A22466946164800F0BA
:1019E0002DF807EBC500641C80ED000B204600F0CD
:1019F00024FB53EC182B00F085FC00D800246D1C50
:101A00004545E1DBFEE70000000000200020024029
:101A1000001002400008004800140040007400401C
:101A200000000000000000000000000000405F40D7
:101A30000814002048000020E80F002070B500EBDB
:101A4000C2052DED048BB0EE418AF0EE618AB0EE56
:101A5000409AF0EE609A95ED000B91ED001B0C465C
:101A600053EC102B51EC110B00F08EFC53EC182BA7
:101A700000F07AF8C4E9000185ED008B94ED000BCD
:101A800053EC192B51EC100B00F022F9BDEC048B38
:101A900041EC100B70BD0000064B10B505490C332E
:101AA00004E00C686406FCD51A80401C0278002A09
:101AB000F7D110BD1C4400401848816D41F400313D
:101AC0008165C16C41F00101C1644FF09040016833
:101AD00021F030010160016821F0300101600168EE
:101AE00041F0A0010160816841F0F00181604FF494
:101AF000EE4101620A48016841F001010160084AB3
:101B00004FF40B710C321160016841F00801016063
:101B1000016841F0040101607047000000100240BC
:101B20000044004010B500290AD00878002807D0EA
:101B300005487844FEF7A2FF002801D0002010BD20
:101B40000248784410BD0000CE0B0000C60B000018
:101B500081F00041704780F00040704721F0004163
:101B6000704720F00040704710B591EA030F48BF5E
:101B700083F0004300F11084841A71EB030C05D24A
:101B8000121943EB0C03001B61EB0C01DFF824E19D
:101B90004FEA1154A4EB135C1EEA430F18BF9EEAF0
:101BA000445F73D023EA0E03DCF1200E21EA0451D6
:101BB00043F4801332D322FA0CFE10EB0E0023FA0A
:101BC0000CFE41EB0E01CCF1200E03FA0EFE10EBE1
:101BD0000E0051F10001B1F5801FCCF1200E32D280
:101BE00001EB045112FA0EF2BDE8104058BF7047E5
:101BF000401C38BF5FEA420218BF7047002814BF7C
:101C000020F0010041F100014FEA410313F5001FEC
:101C100038BF7047A1F1C04100F06EBB012A43EB11
:101C20000302ACF1200CDCF11F0E32BF4FF0000EAE
:101C300023FA0CF310EB030041EB0451B4EB115FFA
:101C4000D0D0A1EB045101F5801149085FEA3000C2
:101C500001EB04510ED350F1000038BF12FA0EFE12
:101C600008D1BDE81040C9E7401C38BF5FEA420216
:101C7000CAD1C3E7BDE810404FEA410313F5001F86
:101C800038BF7047A1F1C04100F036BB9EEA445F07
:101C900008D011EA5E0FBDE8104004BF01F000411A
:101CA00000207047BDE8104070B500F0D7FA00BFC3
:101CB00064FBBE3E0000E0FF491058BFC1F1404147
:101CC0005B1058BFC3F140438B42EFF30080704775
:101CD0002DE9C04130B4DFF8A0C23CEA111418BFAE
:101CE0003CEA131400F0EC8081EA03051CEA1114AD
:101CF00044EAD57418BF1CEA131500F0C780A4EBA2
:101D000005044FF0004545EAC12145EAC32341EAF5
:101D1000505143EA525304F17F74994204F5003460
:101D20004FEAC0204FEAC22208BF904200F09C80D8
:101D30004FEA13650FF24016765D4FEA134506FB36
:101D400005F7C7F1807706FB07F74FEAD737A7FB00
:101D500003687642C8F58038A7FB06CE38BFA8F1E5
:101D6000010807FB08E64FF0000EA6FB028CE6FB1D
:101D700003CEDCF1000CCEF1004E38BFAEF1010E07
:101D8000A6FB0C584FF000074FF00005E6FB0E874E
:101D9000A1FB08C6A0FB07CE16EB0E0645F1000519
:101DA000E1FB076515F1E04E7EBFA4F580345FEAE4
:101DB00046066D4116F1800745F100054FEA1727E9
:101DC0004FEA066647EA0567A6F1DE46B6F1805F90
:101DD0004FEA15251FD9384624F0010C05EBC471D4
:101DE000BCF1FE6F01EB0C1102D8F0BCBDE8008124
:101DF00024425CBF01F5801E9EEAC47F02D4F0BC81
:101E0000BDE80081244238D4F0BCA1F1C041BDE856
:101E1000004100F071BA4FEAD22242EA43524FEA3F
:101E2000D323A7FB02864FEAD02040EA415007FBAC
:101E300003661EEA0E0F4FEAD12105FB026658BF6A
:101E4000A6EB0056B6EB00564FEA520E4EEAC37EA2
:101E500018EB0E0E56EB530EBDD518EB02085E4183
:101E60007F1C55F10005B6E74FF480154FF00007D1
:101E70004FF000064FF00008ADE7F0BC4FF0000057
:101E800001F1C04101F00041BDE8008111EA0C1FE1
:101E90000CEA131500D00CE013EA0C1F00F02580AB
:101EA0004FF00000F0BC81EA030101F00041BDE801
:101EB0000081F0BCBDE8004181EA030100F01CBADA
:101EC000F0BCBDE8004170B500F0C8F9097EFC3EE9
:101ED00000F007B881EA03014FF0000001F0004173
:101EE000704781EA030100F007BAF0BCBDE8004189
:101EF0004FF0000021497047FFFDFBF9F7F5F4F2C0
:101F0000F0EEEDEBE9E8E6E4E3E1E0DEDDDBDAD894
:101F1000D7D5D4D3D1D0CFCDCCCBCAC8C7C6C5C4F2
:101F2000C2C1C0BFBEBDBCBBBAB9B8B7B6B5B4B309
:101F3000B2B1B0AFAEADACABAAA9A8A8A7A6A5A4F4
:101F4000A3A3A2A1A09F9F9E9D9C9C9B9A999998B8
:101F50009797969595949393929191908F8F8E8E5B
:101F60008D8C8C8B8B8A89898888878786858584E8
:101F700084838382828181800000FF070000F87FD4
:101F80004FEA41034FEA5353A3F58063D3F11E0395
:101F9000C8BFD3F1210C0CDD4FF0004242EAC12250
:101FA00042EA505232FA03FC8CEAE17CACEBE1707D
:101FB0007047102BC4BF0020704703F5787CBCF13C
:101FC000FF3F04D06FF0004282EA2100704770B5F5
:101FD00000F044F94992248000207047F2E70000A5
:101FE0004FEA1153A3F58063D3F11E03A8BFD3F1C9
:101FF000200C08DB4FF0004242EAC12252EA505264
:1020000032FA03F0704709420BD4102BC4BF0020F2
:10201000704703F5787CBCF1FF3F05D04FF0FF30EF
:1020200070474FF00000704770B500F017F900BF1F
:102030004992248000207047F0E710F0004248BF2A
:102040004042B0FA80F310FA03F10AD0C3F11D0345
:1020500003F580634FEA415002EB035202EBD121BA
:1020600070474FF000007047B0FA80F310FA03F1A8
:102070000AD0C3F11D0303F580634FEA41504FEAD4
:10208000035202EBD12170474FF00000704700006F
:1020900051EA030C17D41CF5801F58BFBCF5801FF4
:1020A00000F10680994218BF704708BF9042704700
:1020B00007D711F5801F58BF13F5801F19D4994217
:1020C0007047894270471CF5801F08D5BCF5801FFA
:1020D000F7D58B4218BF704708BF824270474FF454
:1020E000001C1CEB410F38BF1CEB430F01D28B428D
:1020F000704770B500F0B2F8922449004FF00051DB
:102100004FF08053FFF7D8BDDFF848C170B51CEA27
:10211000111E1EBF1CEA13159EEA0C0F95EA0C0F48
:1021200000F06F8081EA030423EA4C134EEAD47E68
:1021300021EA4C1141F4801143F48013AE44A1FB19
:10214000024CA0FB0365AEF17F7E361955EB0C0502
:10215000A1FB034C4CF10003A0FB021C16EB0C0688
:10216000654153F10003094218BF46F0010613F41C
:10217000007F0BD14FEA03314FEA0530340341EAC7
:10218000155140EA16506FF003020AE04FEAC321EE
:102190004FEAC520F40241EA555140EA56506FF02B
:1021A000020202EB2E4201EB025585EACE710AD003
:1021B0005FEA440C18BF24F0004450F1000041F1E4
:1021C000000120EAD47040F2FE7C624500D270BD6E
:1021D000A84214BF4FF080444FF04044002E08BF87
:1021E0000024BEF1806FA8BFA1F1C041BDE87040DE
:1021F00080F282804FF0000001F1C04101F0004107
:1022000070479EEA0C0F0CEA131518BF95EA0C0FE5
:1022100006D04FF0000081EA030E0EF0004170BDC1
:1022200000F01CF88900013E00F007B800F009B882
:102230004FEA430C5FEA5C5C08D081EA030100F0DE
:102240005BB84FEA410C5FEA5C5CF6D14FF00000EE
:10225000014970470000FF070000F87F0EF1020EF1
:102260002EF0030E5EF8046B364205D4012A43EBD0
:10227000030515F5001F12D8012841EB010C1CF5D0
:10228000001F0CD80ED14FEAD17C15F5001F0CEBC6
:102290004C0C0CF1020C08BF4CEBD37C04E04FF06B
:1022A000080C01E04FEAD37C0CEB4C0526FA05F64E
:1022B00006F00706B6F1040C06D20EEB860CBDE85C
:1022C00070404CF0010C6047DFE80CF0090B020293
:1022D0004FF000414FF00000A1F5002170BD1946FC
:1022E0001046012851EB010418BFD4F5001484BF37
:1022F000002001F0004170BD0808A0F500114FEA70
:102300003101704753EA010C17D41CF5801F58BFE8
:10231000BCF5801F00F106808B4218BF704708BFD4
:102320008242704707D713F5801F58BF11F5801FF1
:1023300019D48B4270479B4270471CF5801F08D50B
:10234000BCF5801FF7D5994218BF704708BF90426F
:1023500070474FF4001C1CEB430F38BF1CEB410FC0
:1023600001D2994270470FB40CBC03BCFFF7C1BE49
:1023700091EA030F10B581F000413FF5FDAB83F00A
:10238000004300F009B8000010B591EA030F48BF00
:1023900083F000433FF5F0AB841A71EB030C07D2D6
:1023A00012198CF0004C43EB0C03001B61EB0C0189
:1023B000DFF8A4E14FEA1154A4EB135C1EEA430FCB
:1023C00018BF9EEA445F00F0B08023EA6E035242D9
:1023D00021EA0451C3EB6E0338BF5B1EDCF1200E13
:1023E00025D322FA0CFE10EB0E0043FA0CFE41EB53
:1023F0000E01CCF1200E03FA0EFE10EB0E0051F18F
:102400000001CCF1200E29D412FA0EF201EB045196
:10241000BDE8104058BF7047401C1CBFB2F1004FD0
:10242000704700280CBF491C20F00100704712EBD8
:10243000020E43EB030218BF4FF0010E4EEA4202B8
:10244000ACF1200CDCF11E0E54D943FA0CFE10EB5B
:102450000E0051F1FF31CCF11E0ED5D50EF1010E5B
:1024600012FA0EFE404141EB010101EB445C5FEAD0
:102470005C5C10D910EBDE7001EB045138BFBEF18B
:10248000004FBDE8104018BF704700280CBF491C22
:1024900020F00100704730D24FEAD42C11F5001122
:1024A00024F400641BD0B1FA81F20B3AA41AA41EE2
:1024B000D2F12003914030FA03F31943904001EB2D
:1024C000CC71002C01EB0451BDE81040A8BF70474F
:1024D00001F1C0414FF0000001F000417047B0FA37
:1024E00080F310FA03F100D110BDE41A173C48053F
:1024F000C90AE4E701EB045110BD491001EB045196
:10250000BDE810404FEA300002E04FF00001704794
:102510004A0008BF0042F8D0B2F5001F28BF70473C
:1025200001F000414FF0000070479EEA445F07D081
:1025300011EA5E0FBDE8104004BF00210020704783
:10254000BDE8104070B5FFF789FE00BF40DFF63EE2
:1025500083F00041104670470000E0FF43004FEA5F
:10256000D30C4FEA3C0C43401FBF40070CF16051B5
:1025700013F0FE4F70471CF0006F03D100200CF0E9
:10258000004170470CF0004343EA507010B540EA38
:10259000CC0000F00EF800BF000000924FEA0001EE
:1025A000FFF7AABE4FF000414FF00000A1F5002157
:1025B00070470EF1020E2EF0030E5EF8044B24421B
:1025C00004D44FEA4102B2F17F4F11D84FEA4003E1
:1025D000B3F17F4F0CD80ED14FEAD07CB2F17F4FD0
:1025E0000CEB4C0C0CF1020C08BF4CEBD17C04E062
:1025F0004FF0080C01E04FEAD17C0CEB4C0324FABD
:1026000003F404F00704B4F1040C06D20EEB840CBE
:10261000BDE810404CF0010C6047DFE80CF0070803
:1026200002024FF00040A0F5800010BD08464200B5
:1026300018BFD2F1807288BF00F0004010BD4FF08B
:102640004070E1EE100A7047FDF791BF02400000B4
:10265000000000A00000000005400000000000C8CD
:10266000000000000C4000000000409C0000000042
:10267000194000000020BCBE0000000034400000F3
:10268000BFC91B8E00000004B5400000504BCFD0E6
:102690006607E2CF010000006C4100003E8251AAB3
:1026A000DFEEA73401000000D9420000DCB5A0E253
:1026B0003A301F97FFFFFFFFB4450000FD25A0C87B
:1026C000E9A3C14FFFFFFFFFFF3F000000000080B4
:1026D00000000000FF3F000000000080000000003C
:1026E0001C2700080000002048000000C40100086A
:1026F0006427000848000020C0290000E00100080D
:102700001C00000043000000F8FFFFFF0C00000069
:102710000E0000000F0000002E000000000000006E
:1027200000000000000000000000000000000000A9
:102730000020000000000000000000000C0000204D
:102740000000000000000000000000000000000089
:102750000000000001000000100000000000000068
:0427600000093D002F
:040000050800018965
:00000001FF
